{
  "contractName": "Character",
  "abi": [
    {
      "inputs": [
        {
          "name": "name",
          "type": "string"
        },
        {
          "name": "class",
          "type": "address"
        }
      ],
      "payable": false,
      "stateMutability": "nonpayable",
      "type": "constructor"
    },
    {
      "constant": true,
      "inputs": [],
      "name": "getName",
      "outputs": [
        {
          "name": "",
          "type": "string"
        }
      ],
      "payable": false,
      "stateMutability": "view",
      "type": "function"
    },
    {
      "constant": true,
      "inputs": [],
      "name": "getClass",
      "outputs": [
        {
          "name": "",
          "type": "address"
        }
      ],
      "payable": false,
      "stateMutability": "view",
      "type": "function"
    }
  ],
  "bytecode": "0x608060405234801561001057600080fd5b506040516103d63803806103d68339810180604052604081101561003357600080fd5b81019080805164010000000081111561004b57600080fd5b8281019050602081018481111561006157600080fd5b815185600182028301116401000000008211171561007e57600080fd5b50509291906020018051906020019092919050505081600090805190602001906100a99291906100f2565b5080600160006101000a81548173ffffffffffffffffffffffffffffffffffffffff021916908373ffffffffffffffffffffffffffffffffffffffff1602179055505050610197565b828054600181600116156101000203166002900490600052602060002090601f016020900481019282601f1061013357805160ff1916838001178555610161565b82800160010185558215610161579182015b82811115610160578251825591602001919060010190610145565b5b50905061016e9190610172565b5090565b61019491905b80821115610190576000816000905550600101610178565b5090565b90565b610230806101a66000396000f3fe60806040526004361061004c576000357c0100000000000000000000000000000000000000000000000000000000900463ffffffff16806317d7de7c1461005157806357e61ea4146100e1575b600080fd5b34801561005d57600080fd5b50610066610138565b6040518080602001828103825283818151815260200191508051906020019080838360005b838110156100a657808201518184015260208101905061008b565b50505050905090810190601f1680156100d35780820380516001836020036101000a031916815260200191505b509250505060405180910390f35b3480156100ed57600080fd5b506100f66101da565b604051808273ffffffffffffffffffffffffffffffffffffffff1673ffffffffffffffffffffffffffffffffffffffff16815260200191505060405180910390f35b606060008054600181600116156101000203166002900480601f0160208091040260200160405190810160405280929190818152602001828054600181600116156101000203166002900480156101d05780601f106101a5576101008083540402835291602001916101d0565b820191906000526020600020905b8154815290600101906020018083116101b357829003601f168201915b5050505050905090565b6000600160009054906101000a900473ffffffffffffffffffffffffffffffffffffffff1690509056fea165627a7a72305820223acb25acbb8a34332b2d448eec3cb1d8245d8c581d686aaa01c9ffa28b95f10029",
  "source": "pragma solidity >=0.4.21 <0.6.0;\nimport \"./Class.sol\";\n\n\ncontract Character {\n\n  string private _name;\n  Class private _class;\n\n  constructor(string memory name, Class class) public {\n    _name = name;\n    _class = class;\n  }\n\n  function getName() public view returns(string memory) {\n    return _name;\n  }\n\n  function getClass() public view returns(Class) {\n    return _class;\n  }\n}\n",
  "sourcePath": "/Users/jamestouri/Desktop/ethereum/solidity/contracts/Character.sol",
  "compiler": {
    "name": "solc",
    "version": "0.5.0+commit.1d4f565a.Emscripten.clang"
  },
  "schemaVersion": "3.0.6",
  "updatedAt": "2019-03-31T23:31:26.545Z",
  "devdoc": {
    "methods": {}
  },
  "userdoc": {
    "methods": {}
  }
}