{
  "contractName": "Rogue",
  "abi": [
    {
      "constant": true,
      "inputs": [],
      "name": "getName",
      "outputs": [
        {
          "name": "",
          "type": "string"
        }
      ],
      "payable": false,
      "stateMutability": "pure",
      "type": "function"
    }
  ],
  "bytecode": "0x608060405234801561001057600080fd5b5061013f806100206000396000f3fe608060405260043610610041576000357c0100000000000000000000000000000000000000000000000000000000900463ffffffff16806317d7de7c14610046575b600080fd5b34801561005257600080fd5b5061005b6100d6565b6040518080602001828103825283818151815260200191508051906020019080838360005b8381101561009b578082015181840152602081019050610080565b50505050905090810190601f1680156100c85780820380516001836020036101000a031916815260200191505b509250505060405180910390f35b60606040805190810160405280600581526020017f526f67756500000000000000000000000000000000000000000000000000000081525090509056fea165627a7a7230582066d81fa913d7c066377ebe1139fb869057db3a7b417a050f0cd9d7f41466b31f0029",
  "source": "pragma solidity >=0.4.21 <0.6.0;\n\nimport \"../Class.sol\";\n\ncontract Rogue is Class{\n  function getName() public pure returns(string memory) {\n    return \"Rogue\";\n  }\n}\n",
  "sourcePath": "/Users/jamestouri/Desktop/ethereum/solidity/contracts/Classes/Rogue.sol",
  "compiler": {
    "name": "solc",
    "version": "0.5.0+commit.1d4f565a.Emscripten.clang"
  },
  "schemaVersion": "3.0.6",
  "updatedAt": "2019-03-31T23:31:26.545Z",
  "devdoc": {
    "methods": {}
  },
  "userdoc": {
    "methods": {}
  }
}